{
  "contractName": "SignatureChain",
  "abi": [
    {
      "inputs": [
        {
          "internalType": "string",
          "name": "",
          "type": "string"
        }
      ],
      "name": "certificates",
      "outputs": [
        {
          "internalType": "string",
          "name": "certificateNumber",
          "type": "string"
        },
        {
          "internalType": "string",
          "name": "hash",
          "type": "string"
        },
        {
          "internalType": "uint256",
          "name": "timestamp",
          "type": "uint256"
        }
      ],
      "stateMutability": "view",
      "type": "function",
      "constant": true
    },
    {
      "inputs": [
        {
          "internalType": "string",
          "name": "_certNumber",
          "type": "string"
        },
        {
          "internalType": "string",
          "name": "_hash",
          "type": "string"
        }
      ],
      "name": "storeCertificate",
      "outputs": [],
      "stateMutability": "nonpayable",
      "type": "function"
    },
    {
      "inputs": [
        {
          "internalType": "string",
          "name": "_certNumber",
          "type": "string"
        }
      ],
      "name": "getCertificate",
      "outputs": [
        {
          "internalType": "string",
          "name": "",
          "type": "string"
        },
        {
          "internalType": "string",
          "name": "",
          "type": "string"
        },
        {
          "internalType": "uint256",
          "name": "",
          "type": "uint256"
        }
      ],
      "stateMutability": "view",
      "type": "function",
      "constant": true
    }
  ],
  "bytecode": "0x608060405234801561000f575f80fd5b50610a218061001d5f395ff3fe608060405234801561000f575f80fd5b506004361061003f575f3560e01c8063678d3644146100435780638f2b91ea1461005f578063ed0f2e7514610091575b5f80fd5b61005d60048036038101906100589190610540565b6100c3565b005b610079600480360381019061007491906105b6565b610136565b6040516100889392919061068f565b60405180910390f35b6100ab60048036038101906100a691906105b6565b61027f565b6040516100ba9392919061068f565b60405180910390f35b6040518060600160405280838152602001828152602001428152505f836040516100ed919061070c565b90815260200160405180910390205f820151815f01908161010e919061091c565b506020820151816001019081610124919061091c565b50604082015181600201559050505050565b5f818051602081018201805184825260208301602085012081835280955050505050505f91509050805f01805461016c9061074f565b80601f01602080910402602001604051908101604052809291908181526020018280546101989061074f565b80156101e35780601f106101ba576101008083540402835291602001916101e3565b820191905f5260205f20905b8154815290600101906020018083116101c657829003601f168201915b5050505050908060010180546101f89061074f565b80601f01602080910402602001604051908101604052809291908181526020018280546102249061074f565b801561026f5780601f106102465761010080835404028352916020019161026f565b820191905f5260205f20905b81548152906001019060200180831161025257829003601f168201915b5050505050908060020154905083565b6060805f805f85604051610293919061070c565b90815260200160405180910390206040518060600160405290815f820180546102bb9061074f565b80601f01602080910402602001604051908101604052809291908181526020018280546102e79061074f565b80156103325780601f1061030957610100808354040283529160200191610332565b820191905f5260205f20905b81548152906001019060200180831161031557829003601f168201915b5050505050815260200160018201805461034b9061074f565b80601f01602080910402602001604051908101604052809291908181526020018280546103779061074f565b80156103c25780601f10610399576101008083540402835291602001916103c2565b820191905f5260205f20905b8154815290600101906020018083116103a557829003601f168201915b505050505081526020016002820154815250509050805f015181602001518260400151935093509350509193909250565b5f604051905090565b5f80fd5b5f80fd5b5f80fd5b5f80fd5b5f601f19601f8301169050919050565b7f4e487b71000000000000000000000000000000000000000000000000000000005f52604160045260245ffd5b6104528261040c565b810181811067ffffffffffffffff821117156104715761047061041c565b5b80604052505050565b5f6104836103f3565b905061048f8282610449565b919050565b5f67ffffffffffffffff8211156104ae576104ad61041c565b5b6104b78261040c565b9050602081019050919050565b828183375f83830152505050565b5f6104e46104df84610494565b61047a565b905082815260208101848484011115610500576104ff610408565b5b61050b8482856104c4565b509392505050565b5f82601f83011261052757610526610404565b5b81356105378482602086016104d2565b91505092915050565b5f8060408385031215610556576105556103fc565b5b5f83013567ffffffffffffffff81111561057357610572610400565b5b61057f85828601610513565b925050602083013567ffffffffffffffff8111156105a05761059f610400565b5b6105ac85828601610513565b9150509250929050565b5f602082840312156105cb576105ca6103fc565b5b5f82013567ffffffffffffffff8111156105e8576105e7610400565b5b6105f484828501610513565b91505092915050565b5f81519050919050565b5f82825260208201905092915050565b5f5b83811015610634578082015181840152602081019050610619565b5f8484015250505050565b5f610649826105fd565b6106538185610607565b9350610663818560208601610617565b61066c8161040c565b840191505092915050565b5f819050919050565b61068981610677565b82525050565b5f6060820190508181035f8301526106a7818661063f565b905081810360208301526106bb818561063f565b90506106ca6040830184610680565b949350505050565b5f81905092915050565b5f6106e6826105fd565b6106f081856106d2565b9350610700818560208601610617565b80840191505092915050565b5f61071782846106dc565b915081905092915050565b7f4e487b71000000000000000000000000000000000000000000000000000000005f52602260045260245ffd5b5f600282049050600182168061076657607f821691505b60208210810361077957610778610722565b5b50919050565b5f819050815f5260205f209050919050565b5f6020601f8301049050919050565b5f82821b905092915050565b5f600883026107db7fffffffffffffffffffffffffffffffffffffffffffffffffffffffffffffffff826107a0565b6107e586836107a0565b95508019841693508086168417925050509392505050565b5f819050919050565b5f61082061081b61081684610677565b6107fd565b610677565b9050919050565b5f819050919050565b61083983610806565b61084d61084582610827565b8484546107ac565b825550505050565b5f90565b610861610855565b61086c818484610830565b505050565b5b8181101561088f576108845f82610859565b600181019050610872565b5050565b601f8211156108d4576108a58161077f565b6108ae84610791565b810160208510156108bd578190505b6108d16108c985610791565b830182610871565b50505b505050565b5f82821c905092915050565b5f6108f45f19846008026108d9565b1980831691505092915050565b5f61090c83836108e5565b9150826002028217905092915050565b610925826105fd565b67ffffffffffffffff81111561093e5761093d61041c565b5b610948825461074f565b610953828285610893565b5f60209050601f831160018114610984575f8415610972578287015190505b61097c8582610901565b8655506109e3565b601f1984166109928661077f565b5f5b828110156109b957848901518255600182019150602085019450602081019050610994565b868310156109d657848901516109d2601f8916826108e5565b8355505b6001600288020188555050505b50505050505056fea2646970667358221220ffe95a3d0ef5cc354c4b642a8aa998f2055e60987536a76744a5dc0982d3f96264736f6c63430008140033",
  "immutableReferences": {},
  "source": "// SPDX-License-Identifier: MIT\r\npragma solidity ^0.8.20;\r\n\r\ncontract SignatureChain {\r\n    struct Certificate {\r\n        string certificateNumber;\r\n        string hash;\r\n        uint timestamp;\r\n    }\r\n\r\n    mapping(string => Certificate) public certificates;\r\n\r\n    function storeCertificate(string memory _certNumber, string memory _hash) public {\r\n        certificates[_certNumber] = Certificate(_certNumber, _hash, block.timestamp);\r\n    }\r\n\r\n    function getCertificate(string memory _certNumber) public view returns (string memory, string memory, uint) {\r\n        Certificate memory cert = certificates[_certNumber];\r\n        return (cert.certificateNumber, cert.hash, cert.timestamp);\r\n    }\r\n}\r\n",
  "sourcePath": "E:\\Project versions\\for github\\SignProject_Blockchain\\blockchain\\contracts\\SignatureChain.sol",
  "compiler": {
    "name": "solc",
    "version": "0.8.20+commit.a1b79de6.Emscripten.clang"
  },
  "schemaVersion": "3.4.16",
  "updatedAt": "2025-05-15T11:33:55.615Z",
  "networkType": "ethereum",
  "devdoc": {
    "kind": "dev",
    "methods": {},
    "version": 1
  },
  "userdoc": {
    "kind": "user",
    "methods": {},
    "version": 1
  }
}