{
  "contractName": "TestDeploy",
  "abi": [
    {
      "inputs": [],
      "name": "value",
      "outputs": [
        {
          "internalType": "uint256",
          "name": "",
          "type": "uint256"
        }
      ],
      "stateMutability": "view",
      "type": "function"
    }
  ],
  "bytecode": "0x6080604052602a5f55348015610013575f80fd5b5060ac806100205f395ff3fe6080604052348015600e575f80fd5b50600436106026575f3560e01c80633fa4f24514602a575b5f80fd5b60306044565b604051603b9190605f565b60405180910390f35b5f5481565b5f819050919050565b6059816049565b82525050565b5f60208201905060705f8301846052565b9291505056fea26469706673582212202223e92c9a09955d383e28a15b112d576f65483f65969cbef40a17395112feae64736f6c63430008140033",
  "immutableReferences": {},
  "source": "// SPDX-License-Identifier: MIT\r\npragma solidity ^0.8.20;\r\n\r\ncontract TestDeploy {\r\n    uint public value = 42;\r\n}\r\n",
  "sourcePath": "E:\\SignProject_Blockchain\\blockchain\\contracts\\TestDeploy.sol",
  "compiler": {
    "name": "solc",
    "version": "0.8.20+commit.a1b79de6.Emscripten.clang"
  },
  "schemaVersion": "3.4.16",
  "updatedAt": "2025-05-13T11:19:15.634Z",
  "devdoc": {
    "kind": "dev",
    "methods": {},
    "version": 1
  },
  "userdoc": {
    "kind": "user",
    "methods": {},
    "version": 1
  }
}